{
  "_format": "hh-sol-artifact-1",
  "contractName": "QuestionReward",
  "sourceName": "contracts/QuestionReward.sol",
  "abi": [
    {
      "inputs": [
        {
          "internalType": "address",
          "name": "_defaultAdmin",
          "type": "address"
        },
        {
          "internalType": "string",
          "name": "_name",
          "type": "string"
        },
        {
          "internalType": "string",
          "name": "_symbol",
          "type": "string"
        },
        {
          "internalType": "address",
          "name": "_systemTreasury",
          "type": "address"
        }
      ],
      "stateMutability": "nonpayable",
      "type": "constructor"
    },
    {
      "inputs": [],
      "name": "ContractMetadataUnauthorized",
      "type": "error"
    },
    {
      "inputs": [],
      "name": "OwnableUnauthorized",
      "type": "error"
    },
    {
      "inputs": [
        {
          "internalType": "address",
          "name": "account",
          "type": "address"
        },
        {
          "internalType": "bytes32",
          "name": "role",
          "type": "bytes32"
        }
      ],
      "name": "PermissionsAlreadyGranted",
      "type": "error"
    },
    {
      "inputs": [
        {
          "internalType": "address",
          "name": "expected",
          "type": "address"
        },
        {
          "internalType": "address",
          "name": "actual",
          "type": "address"
        }
      ],
      "name": "PermissionsInvalidPermission",
      "type": "error"
    },
    {
      "inputs": [
        {
          "internalType": "address",
          "name": "account",
          "type": "address"
        },
        {
          "internalType": "bytes32",
          "name": "neededRole",
          "type": "bytes32"
        }
      ],
      "name": "PermissionsUnauthorizedAccount",
      "type": "error"
    },
    {
      "anonymous": false,
      "inputs": [
        {
          "indexed": true,
          "internalType": "bytes32",
          "name": "questionId",
          "type": "bytes32"
        },
        {
          "indexed": true,
          "internalType": "address",
          "name": "answerer",
          "type": "address"
        }
      ],
      "name": "AnswerAccepted",
      "type": "event"
    },
    {
      "anonymous": false,
      "inputs": [
        {
          "indexed": true,
          "internalType": "address",
          "name": "owner",
          "type": "address"
        },
        {
          "indexed": true,
          "internalType": "address",
          "name": "spender",
          "type": "address"
        },
        {
          "indexed": false,
          "internalType": "uint256",
          "name": "value",
          "type": "uint256"
        }
      ],
      "name": "Approval",
      "type": "event"
    },
    {
      "anonymous": false,
      "inputs": [
        {
          "indexed": false,
          "internalType": "string",
          "name": "prevURI",
          "type": "string"
        },
        {
          "indexed": false,
          "internalType": "string",
          "name": "newURI",
          "type": "string"
        }
      ],
      "name": "ContractURIUpdated",
      "type": "event"
    },
    {
      "anonymous": false,
      "inputs": [
        {
          "indexed": true,
          "internalType": "address",
          "name": "prevOwner",
          "type": "address"
        },
        {
          "indexed": true,
          "internalType": "address",
          "name": "newOwner",
          "type": "address"
        }
      ],
      "name": "OwnerUpdated",
      "type": "event"
    },
    {
      "anonymous": false,
      "inputs": [
        {
          "indexed": true,
          "internalType": "bytes32",
          "name": "questionId",
          "type": "bytes32"
        },
        {
          "indexed": true,
          "internalType": "address",
          "name": "author",
          "type": "address"
        },
        {
          "indexed": false,
          "internalType": "uint256",
          "name": "rewardAmount",
          "type": "uint256"
        }
      ],
      "name": "QuestionCreated",
      "type": "event"
    },
    {
      "anonymous": false,
      "inputs": [
        {
          "indexed": true,
          "internalType": "bytes32",
          "name": "questionId",
          "type": "bytes32"
        },
        {
          "indexed": true,
          "internalType": "address",
          "name": "recipient",
          "type": "address"
        },
        {
          "indexed": false,
          "internalType": "uint256",
          "name": "amount",
          "type": "uint256"
        }
      ],
      "name": "RewardDistributed",
      "type": "event"
    },
    {
      "anonymous": false,
      "inputs": [
        {
          "indexed": true,
          "internalType": "bytes32",
          "name": "role",
          "type": "bytes32"
        },
        {
          "indexed": true,
          "internalType": "bytes32",
          "name": "previousAdminRole",
          "type": "bytes32"
        },
        {
          "indexed": true,
          "internalType": "bytes32",
          "name": "newAdminRole",
          "type": "bytes32"
        }
      ],
      "name": "RoleAdminChanged",
      "type": "event"
    },
    {
      "anonymous": false,
      "inputs": [
        {
          "indexed": true,
          "internalType": "bytes32",
          "name": "role",
          "type": "bytes32"
        },
        {
          "indexed": true,
          "internalType": "address",
          "name": "account",
          "type": "address"
        },
        {
          "indexed": true,
          "internalType": "address",
          "name": "sender",
          "type": "address"
        }
      ],
      "name": "RoleGranted",
      "type": "event"
    },
    {
      "anonymous": false,
      "inputs": [
        {
          "indexed": true,
          "internalType": "bytes32",
          "name": "role",
          "type": "bytes32"
        },
        {
          "indexed": true,
          "internalType": "address",
          "name": "account",
          "type": "address"
        },
        {
          "indexed": true,
          "internalType": "address",
          "name": "sender",
          "type": "address"
        }
      ],
      "name": "RoleRevoked",
      "type": "event"
    },
    {
      "anonymous": false,
      "inputs": [
        {
          "indexed": true,
          "internalType": "address",
          "name": "mintedTo",
          "type": "address"
        },
        {
          "indexed": false,
          "internalType": "uint256",
          "name": "quantityMinted",
          "type": "uint256"
        }
      ],
      "name": "TokensMinted",
      "type": "event"
    },
    {
      "anonymous": false,
      "inputs": [
        {
          "indexed": true,
          "internalType": "address",
          "name": "from",
          "type": "address"
        },
        {
          "indexed": true,
          "internalType": "address",
          "name": "to",
          "type": "address"
        },
        {
          "indexed": false,
          "internalType": "uint256",
          "name": "value",
          "type": "uint256"
        }
      ],
      "name": "Transfer",
      "type": "event"
    },
    {
      "inputs": [],
      "name": "DEFAULT_ADMIN_ROLE",
      "outputs": [
        {
          "internalType": "bytes32",
          "name": "",
          "type": "bytes32"
        }
      ],
      "stateMutability": "view",
      "type": "function"
    },
    {
      "inputs": [],
      "name": "DOMAIN_SEPARATOR",
      "outputs": [
        {
          "internalType": "bytes32",
          "name": "",
          "type": "bytes32"
        }
      ],
      "stateMutability": "view",
      "type": "function"
    },
    {
      "inputs": [],
      "name": "MINTER_ROLE",
      "outputs": [
        {
          "internalType": "bytes32",
          "name": "",
          "type": "bytes32"
        }
      ],
      "stateMutability": "view",
      "type": "function"
    },
    {
      "inputs": [],
      "name": "QUESTION_CREATOR_ROLE",
      "outputs": [
        {
          "internalType": "bytes32",
          "name": "",
          "type": "bytes32"
        }
      ],
      "stateMutability": "view",
      "type": "function"
    },
    {
      "inputs": [
        {
          "internalType": "bytes32",
          "name": "questionId",
          "type": "bytes32"
        },
        {
          "internalType": "address",
          "name": "answerer",
          "type": "address"
        }
      ],
      "name": "acceptAnswer",
      "outputs": [],
      "stateMutability": "nonpayable",
      "type": "function"
    },
    {
      "inputs": [
        {
          "internalType": "address",
          "name": "owner",
          "type": "address"
        },
        {
          "internalType": "address",
          "name": "spender",
          "type": "address"
        }
      ],
      "name": "allowance",
      "outputs": [
        {
          "internalType": "uint256",
          "name": "",
          "type": "uint256"
        }
      ],
      "stateMutability": "view",
      "type": "function"
    },
    {
      "inputs": [
        {
          "internalType": "address",
          "name": "spender",
          "type": "address"
        },
        {
          "internalType": "uint256",
          "name": "amount",
          "type": "uint256"
        }
      ],
      "name": "approve",
      "outputs": [
        {
          "internalType": "bool",
          "name": "",
          "type": "bool"
        }
      ],
      "stateMutability": "nonpayable",
      "type": "function"
    },
    {
      "inputs": [
        {
          "internalType": "address",
          "name": "account",
          "type": "address"
        }
      ],
      "name": "balanceOf",
      "outputs": [
        {
          "internalType": "uint256",
          "name": "",
          "type": "uint256"
        }
      ],
      "stateMutability": "view",
      "type": "function"
    },
    {
      "inputs": [
        {
          "internalType": "uint256",
          "name": "_amount",
          "type": "uint256"
        }
      ],
      "name": "burn",
      "outputs": [],
      "stateMutability": "nonpayable",
      "type": "function"
    },
    {
      "inputs": [
        {
          "internalType": "address",
          "name": "_account",
          "type": "address"
        },
        {
          "internalType": "uint256",
          "name": "_amount",
          "type": "uint256"
        }
      ],
      "name": "burnFrom",
      "outputs": [],
      "stateMutability": "nonpayable",
      "type": "function"
    },
    {
      "inputs": [],
      "name": "contractURI",
      "outputs": [
        {
          "internalType": "string",
          "name": "",
          "type": "string"
        }
      ],
      "stateMutability": "view",
      "type": "function"
    },
    {
      "inputs": [
        {
          "internalType": "bytes32",
          "name": "questionId",
          "type": "bytes32"
        },
        {
          "internalType": "uint256",
          "name": "rewardAmount",
          "type": "uint256"
        }
      ],
      "name": "createQuestion",
      "outputs": [],
      "stateMutability": "nonpayable",
      "type": "function"
    },
    {
      "inputs": [],
      "name": "decimals",
      "outputs": [
        {
          "internalType": "uint8",
          "name": "",
          "type": "uint8"
        }
      ],
      "stateMutability": "view",
      "type": "function"
    },
    {
      "inputs": [
        {
          "internalType": "address",
          "name": "spender",
          "type": "address"
        },
        {
          "internalType": "uint256",
          "name": "subtractedValue",
          "type": "uint256"
        }
      ],
      "name": "decreaseAllowance",
      "outputs": [
        {
          "internalType": "bool",
          "name": "",
          "type": "bool"
        }
      ],
      "stateMutability": "nonpayable",
      "type": "function"
    },
    {
      "inputs": [
        {
          "internalType": "bytes32",
          "name": "questionId",
          "type": "bytes32"
        }
      ],
      "name": "getQuestionDetails",
      "outputs": [
        {
          "internalType": "address",
          "name": "author",
          "type": "address"
        },
        {
          "internalType": "uint256",
          "name": "rewardAmount",
          "type": "uint256"
        },
        {
          "internalType": "bool",
          "name": "isActive",
          "type": "bool"
        },
        {
          "internalType": "bool",
          "name": "isAnswered",
          "type": "bool"
        },
        {
          "internalType": "address",
          "name": "acceptedAnswer",
          "type": "address"
        }
      ],
      "stateMutability": "view",
      "type": "function"
    },
    {
      "inputs": [
        {
          "internalType": "bytes32",
          "name": "role",
          "type": "bytes32"
        }
      ],
      "name": "getRoleAdmin",
      "outputs": [
        {
          "internalType": "bytes32",
          "name": "",
          "type": "bytes32"
        }
      ],
      "stateMutability": "view",
      "type": "function"
    },
    {
      "inputs": [
        {
          "internalType": "bytes32",
          "name": "role",
          "type": "bytes32"
        },
        {
          "internalType": "uint256",
          "name": "index",
          "type": "uint256"
        }
      ],
      "name": "getRoleMember",
      "outputs": [
        {
          "internalType": "address",
          "name": "member",
          "type": "address"
        }
      ],
      "stateMutability": "view",
      "type": "function"
    },
    {
      "inputs": [
        {
          "internalType": "bytes32",
          "name": "role",
          "type": "bytes32"
        }
      ],
      "name": "getRoleMemberCount",
      "outputs": [
        {
          "internalType": "uint256",
          "name": "count",
          "type": "uint256"
        }
      ],
      "stateMutability": "view",
      "type": "function"
    },
    {
      "inputs": [
        {
          "internalType": "bytes32",
          "name": "role",
          "type": "bytes32"
        },
        {
          "internalType": "address",
          "name": "account",
          "type": "address"
        }
      ],
      "name": "grantRole",
      "outputs": [],
      "stateMutability": "nonpayable",
      "type": "function"
    },
    {
      "inputs": [
        {
          "internalType": "bytes32",
          "name": "role",
          "type": "bytes32"
        },
        {
          "internalType": "address",
          "name": "account",
          "type": "address"
        }
      ],
      "name": "hasRole",
      "outputs": [
        {
          "internalType": "bool",
          "name": "",
          "type": "bool"
        }
      ],
      "stateMutability": "view",
      "type": "function"
    },
    {
      "inputs": [
        {
          "internalType": "bytes32",
          "name": "role",
          "type": "bytes32"
        },
        {
          "internalType": "address",
          "name": "account",
          "type": "address"
        }
      ],
      "name": "hasRoleWithSwitch",
      "outputs": [
        {
          "internalType": "bool",
          "name": "",
          "type": "bool"
        }
      ],
      "stateMutability": "view",
      "type": "function"
    },
    {
      "inputs": [
        {
          "internalType": "address",
          "name": "spender",
          "type": "address"
        },
        {
          "internalType": "uint256",
          "name": "addedValue",
          "type": "uint256"
        }
      ],
      "name": "increaseAllowance",
      "outputs": [
        {
          "internalType": "bool",
          "name": "",
          "type": "bool"
        }
      ],
      "stateMutability": "nonpayable",
      "type": "function"
    },
    {
      "inputs": [
        {
          "internalType": "address",
          "name": "to",
          "type": "address"
        },
        {
          "internalType": "uint256",
          "name": "amount",
          "type": "uint256"
        }
      ],
      "name": "mint",
      "outputs": [],
      "stateMutability": "nonpayable",
      "type": "function"
    },
    {
      "inputs": [
        {
          "internalType": "address",
          "name": "_to",
          "type": "address"
        },
        {
          "internalType": "uint256",
          "name": "_amount",
          "type": "uint256"
        }
      ],
      "name": "mintTo",
      "outputs": [],
      "stateMutability": "nonpayable",
      "type": "function"
    },
    {
      "inputs": [
        {
          "internalType": "bytes[]",
          "name": "data",
          "type": "bytes[]"
        }
      ],
      "name": "multicall",
      "outputs": [
        {
          "internalType": "bytes[]",
          "name": "results",
          "type": "bytes[]"
        }
      ],
      "stateMutability": "nonpayable",
      "type": "function"
    },
    {
      "inputs": [],
      "name": "name",
      "outputs": [
        {
          "internalType": "string",
          "name": "",
          "type": "string"
        }
      ],
      "stateMutability": "view",
      "type": "function"
    },
    {
      "inputs": [
        {
          "internalType": "address",
          "name": "owner",
          "type": "address"
        }
      ],
      "name": "nonces",
      "outputs": [
        {
          "internalType": "uint256",
          "name": "",
          "type": "uint256"
        }
      ],
      "stateMutability": "view",
      "type": "function"
    },
    {
      "inputs": [],
      "name": "owner",
      "outputs": [
        {
          "internalType": "address",
          "name": "",
          "type": "address"
        }
      ],
      "stateMutability": "view",
      "type": "function"
    },
    {
      "inputs": [
        {
          "internalType": "address",
          "name": "owner",
          "type": "address"
        },
        {
          "internalType": "address",
          "name": "spender",
          "type": "address"
        },
        {
          "internalType": "uint256",
          "name": "value",
          "type": "uint256"
        },
        {
          "internalType": "uint256",
          "name": "deadline",
          "type": "uint256"
        },
        {
          "internalType": "uint8",
          "name": "v",
          "type": "uint8"
        },
        {
          "internalType": "bytes32",
          "name": "r",
          "type": "bytes32"
        },
        {
          "internalType": "bytes32",
          "name": "s",
          "type": "bytes32"
        }
      ],
      "name": "permit",
      "outputs": [],
      "stateMutability": "nonpayable",
      "type": "function"
    },
    {
      "inputs": [
        {
          "internalType": "bytes32",
          "name": "",
          "type": "bytes32"
        }
      ],
      "name": "questions",
      "outputs": [
        {
          "internalType": "address",
          "name": "author",
          "type": "address"
        },
        {
          "internalType": "uint256",
          "name": "rewardAmount",
          "type": "uint256"
        },
        {
          "internalType": "bool",
          "name": "isActive",
          "type": "bool"
        },
        {
          "internalType": "bool",
          "name": "isAnswered",
          "type": "bool"
        },
        {
          "internalType": "address",
          "name": "acceptedAnswer",
          "type": "address"
        }
      ],
      "stateMutability": "view",
      "type": "function"
    },
    {
      "inputs": [
        {
          "internalType": "bytes32",
          "name": "role",
          "type": "bytes32"
        },
        {
          "internalType": "address",
          "name": "account",
          "type": "address"
        }
      ],
      "name": "renounceRole",
      "outputs": [],
      "stateMutability": "nonpayable",
      "type": "function"
    },
    {
      "inputs": [
        {
          "internalType": "bytes32",
          "name": "role",
          "type": "bytes32"
        },
        {
          "internalType": "address",
          "name": "account",
          "type": "address"
        }
      ],
      "name": "revokeRole",
      "outputs": [],
      "stateMutability": "nonpayable",
      "type": "function"
    },
    {
      "inputs": [
        {
          "internalType": "string",
          "name": "_uri",
          "type": "string"
        }
      ],
      "name": "setContractURI",
      "outputs": [],
      "stateMutability": "nonpayable",
      "type": "function"
    },
    {
      "inputs": [
        {
          "internalType": "address",
          "name": "_newOwner",
          "type": "address"
        }
      ],
      "name": "setOwner",
      "outputs": [],
      "stateMutability": "nonpayable",
      "type": "function"
    },
    {
      "inputs": [],
      "name": "symbol",
      "outputs": [
        {
          "internalType": "string",
          "name": "",
          "type": "string"
        }
      ],
      "stateMutability": "view",
      "type": "function"
    },
    {
      "inputs": [],
      "name": "systemTreasury",
      "outputs": [
        {
          "internalType": "address",
          "name": "",
          "type": "address"
        }
      ],
      "stateMutability": "view",
      "type": "function"
    },
    {
      "inputs": [],
      "name": "totalSupply",
      "outputs": [
        {
          "internalType": "uint256",
          "name": "",
          "type": "uint256"
        }
      ],
      "stateMutability": "view",
      "type": "function"
    },
    {
      "inputs": [
        {
          "internalType": "address",
          "name": "to",
          "type": "address"
        },
        {
          "internalType": "uint256",
          "name": "amount",
          "type": "uint256"
        }
      ],
      "name": "transfer",
      "outputs": [
        {
          "internalType": "bool",
          "name": "",
          "type": "bool"
        }
      ],
      "stateMutability": "nonpayable",
      "type": "function"
    },
    {
      "inputs": [
        {
          "internalType": "address",
          "name": "from",
          "type": "address"
        },
        {
          "internalType": "address",
          "name": "to",
          "type": "address"
        },
        {
          "internalType": "uint256",
          "name": "amount",
          "type": "uint256"
        }
      ],
      "name": "transferFrom",
      "outputs": [
        {
          "internalType": "bool",
          "name": "",
          "type": "bool"
        }
      ],
      "stateMutability": "nonpayable",
      "type": "function"
    }
  ],
  "bytecode": "0x6101206040527f6e71edae12b1b97f4d1f60370fef10105fa2faae0126114a169c64845d6126c960e0523480156200003657600080fd5b506040516200310e3803806200310e83398101604081905262000059916200046f565b8383838181818160056200006e83826200058e565b5060066200007d82826200058e565b50504660a052503060c0526200009262000124565b60805250620000a3905083620001bb565b50620000b5915060009050856200020d565b620000e17f9f2df0fed2c77648de5860a4cc508cd0818c85b8b8a1ab4ceeef8d981c8956a6856200020d565b6200010d7fef485be696bbc0c91ad541bbd553ffb5bd0e18dac30ba76e992dda23cb807a8a856200020d565b6001600160a01b0316610100525062000682915050565b60007f8b73c3c69bb8fe3d512ecc4cf759cc79239f7b179b0ffacaa9a75d522b39400f6200015162000229565b80516020918201206040805192830193909352918101919091527fc89efdaa54c0f20c7adf612882df0950f5a951637e0307cdcb4c672f298b8bc660608201524660808201523060a082015260c00160405160208183030381529060405280519060200120905090565b600180546001600160a01b038381166001600160a01b0319831681179093556040519116919082907f8292fce18fa69edf4db7b94ea2e58241df0ae57f97e0a6c9b29067028bf92d7690600090a35050565b620002198282620002c3565b6200022582826200031e565b5050565b6060600580546200023a90620004ff565b80601f01602080910402602001604051908101604052809291908181526020018280546200026890620004ff565b8015620002b95780601f106200028d57610100808354040283529160200191620002b9565b820191906000526020600020905b8154815290600101906020018083116200029b57829003601f168201915b5050505050905090565b60008281526008602090815260408083206001600160a01b0385168085529252808320805460ff1916600117905551339285917f2f8788117e7eff1d82e926ec794901d17c78024a50270940304540a733656f0d9190a45050565b6000828152600a60205260408120805491600191906200033f83856200065a565b90915550506000928352600a6020908152604080852083865260018101835281862080546001600160a01b039096166001600160a01b03199096168617905593855260029093019052912055565b80516001600160a01b0381168114620003a557600080fd5b919050565b634e487b7160e01b600052604160045260246000fd5b600082601f830112620003d257600080fd5b81516001600160401b0380821115620003ef57620003ef620003aa565b604051601f8301601f19908116603f011681019082821181831017156200041a576200041a620003aa565b816040528381526020925086838588010111156200043757600080fd5b600091505b838210156200045b57858201830151818301840152908201906200043c565b600093810190920192909252949350505050565b600080600080608085870312156200048657600080fd5b62000491856200038d565b60208601519094506001600160401b0380821115620004af57600080fd5b620004bd88838901620003c0565b94506040870151915080821115620004d457600080fd5b50620004e387828801620003c0565b925050620004f4606086016200038d565b905092959194509250565b600181811c908216806200051457607f821691505b6020821081036200053557634e487b7160e01b600052602260045260246000fd5b50919050565b601f8211156200058957600081815260208120601f850160051c81016020861015620005645750805b601f850160051c820191505b81811015620005855782815560010162000570565b5050505b505050565b81516001600160401b03811115620005aa57620005aa620003aa565b620005c281620005bb8454620004ff565b846200053b565b602080601f831160018114620005fa5760008415620005e15750858301515b600019600386901b1c1916600185901b17855562000585565b600085815260208120601f198616915b828110156200062b578886015182559484019460019091019084016200060a565b50858210156200064a5787850151600019600388901b60f8161c191681555b5050505050600190811b01905550565b808201808211156200067c57634e487b7160e01b600052601160045260246000fd5b92915050565b60805160a05160c05160e05161010051612a39620006d5600039600081816104e401528181611289015261132b01526000611472015260006107d3015260006107fd015260006108270152612a396000f3fe608060405234801561001057600080fd5b506004361061023d5760003560e01c80639010d07c1161013b578063a457c2d7116100b8578063d505accf1161007c578063d505accf146105db578063d5391393146105ee578063d547741f14610615578063dd62ed3e14610628578063e8a3d4851461063b57600080fd5b8063a457c2d71461056f578063a9059cbb14610582578063ac9650d814610595578063c8898a08146105b5578063ca15c873146105c857600080fd5b806398aad17c116100ff57806398aad17c146104cc5780639bc12b90146104df5780639c247d6b14610506578063a217fddf14610554578063a32fa5b31461055c57600080fd5b80639010d07c1461040157806391d1485414610414578063938e3d7b1461042757806395addb901461043a57806395d89b41146104c457600080fd5b806336568abe116101c957806370a082311161018d57806370a082311461036657806377b4a3e71461038f57806379cc6790146103b65780637ecebe00146103c95780638da5cb5b146103dc57600080fd5b806336568abe14610307578063395093511461031a57806340c10f191461032d57806342966c6814610340578063449a52f81461035357600080fd5b806323b872dd1161021057806323b872dd146102aa578063248a9ca3146102bd5780632f2ff15d146102dd578063313ce567146102f05780633644e515146102ff57600080fd5b806306fdde0314610242578063095ea7b31461026057806313af40351461028357806318160ddd14610298575b600080fd5b61024a610643565b60405161025791906123d0565b60405180910390f35b61027361026e3660046123ff565b6106d5565b6040519015158152602001610257565b610296610291366004612429565b6106ef565b005b6004545b604051908152602001610257565b6102736102b8366004612444565b610720565b61029c6102cb366004612480565b60009081526009602052604090205490565b6102966102eb366004612499565b610744565b60405160128152602001610257565b61029c6107c6565b610296610315366004612499565b610856565b6102736103283660046123ff565b61089a565b61029661033b3660046123ff565b6108d9565b61029661034e366004612480565b61094a565b6102966103613660046123ff565b6109a8565b61029c610374366004612429565b6001600160a01b031660009081526002602052604090205490565b61029c7fef485be696bbc0c91ad541bbd553ffb5bd0e18dac30ba76e992dda23cb807a8a81565b6102966103c43660046123ff565b610a43565b61029c6103d7366004612429565b610b39565b6001546001600160a01b03165b6040516001600160a01b039091168152602001610257565b6103e961040f3660046124c5565b610b57565b610273610422366004612499565b610c45565b6102966104353660046124fd565b610c70565b61048a610448366004612480565b600b602052600090815260409020805460018201546002909201546001600160a01b03918216929160ff80831692610100810490911691620100009091041685565b604080516001600160a01b03968716815260208101959095529215159284019290925215156060830152909116608082015260a001610257565b61024a610c9e565b6102966104da3660046124c5565b610cad565b6103e97f000000000000000000000000000000000000000000000000000000000000000081565b61048a610514366004612480565b6000908152600b60205260409020805460018201546002909201546001600160a01b039182169360ff808316936101008404909116926201000090041690565b61029c600081565b61027361056a366004612499565b610e4d565b61027361057d3660046123ff565b610ea3565b6102736105903660046123ff565b610f35565b6105a86105a33660046125ae565b610f43565b6040516102579190612623565b6102966105c3366004612499565b6110aa565b61029c6105d6366004612480565b611395565b6102966105e9366004612685565b61141e565b61029c7f9f2df0fed2c77648de5860a4cc508cd0818c85b8b8a1ab4ceeef8d981c8956a681565b610296610623366004612499565b6115a4565b61029c6106363660046126f8565b6115bd565b61024a6115e8565b60606005805461065290612722565b80601f016020809104026020016040519081016040528092919081815260200182805461067e90612722565b80156106cb5780601f106106a0576101008083540402835291602001916106cb565b820191906000526020600020905b8154815290600101906020018083116106ae57829003601f168201915b5050505050905090565b6000336106e3818585611676565b60019150505b92915050565b6106f7611792565b610714576040516316ccb9cb60e11b815260040160405180910390fd5b61071d816117bf565b50565b60003361072e858285611811565b61073985858561188b565b506001949350505050565b60008281526009602052604090205461075d9033611a59565b60008281526008602090815260408083206001600160a01b038516845290915290205460ff16156107b857604051636a4e0b3560e11b81526001600160a01b0382166004820152602481018390526044015b60405180910390fd5b6107c28282611aae565b5050565b6000306001600160a01b037f00000000000000000000000000000000000000000000000000000000000000001614801561081f57507f000000000000000000000000000000000000000000000000000000000000000046145b1561084957507f000000000000000000000000000000000000000000000000000000000000000090565b610851611ac2565b905090565b336001600160a01b03821614610890576040516320b4e31160e11b81523360048201526001600160a01b03821660248201526044016107af565b6107c28282611b57565b3360008181526003602090815260408083206001600160a01b03871684529091528120549091906106e390829086906108d490879061276c565b611676565b6109037f9f2df0fed2c77648de5860a4cc508cd0818c85b8b8a1ab4ceeef8d981c8956a633610c45565b6109405760405162461bcd60e51b815260206004820152600e60248201526d139bdd08185d5d1a1bdc9a5e995960921b60448201526064016107af565b6107c28282611bae565b3360009081526002602052604090205481111561099e5760405162461bcd60e51b81526020600482015260126024820152716e6f7420656e6f7567682062616c616e636560701b60448201526064016107af565b61071d3382611c8d565b6109b0611792565b6109fc5760405162461bcd60e51b815260206004820152601760248201527f4e6f7420617574686f72697a656420746f206d696e742e00000000000000000060448201526064016107af565b806000036109405760405162461bcd60e51b815260206004820152601460248201527326b4b73a34b733903d32b937903a37b5b2b7399760611b60448201526064016107af565b610a4b611792565b610a975760405162461bcd60e51b815260206004820152601760248201527f4e6f7420617574686f72697a656420746f206275726e2e00000000000000000060448201526064016107af565b80610ab7836001600160a01b031660009081526002602052604090205490565b1015610afa5760405162461bcd60e51b81526020600482015260126024820152716e6f7420656e6f7567682062616c616e636560701b60448201526064016107af565b600081610b0784336115bd565b610b11919061277f565b9050610b1f83336000611676565b610b2a833383611676565b610b348383611c8d565b505050565b6001600160a01b0381166000908152600760205260408120546106e9565b6000828152600a602052604081205481805b82811015610c3c576000868152600a602090815260408083208484526001019091529020546001600160a01b031615610be557848203610bd3576000868152600a602090815260408083209383526001909301905220546001600160a01b031692506106e9915050565b610bde60018361276c565b9150610c2a565b610bf0866000610c45565b8015610c1757506000868152600a6020908152604080832083805260020190915290205481145b15610c2a57610c2760018361276c565b91505b610c3560018261276c565b9050610b69565b50505092915050565b60009182526008602090815260408084206001600160a01b0393909316845291905290205460ff1690565b610c78611792565b610c9557604051639f7f092560e01b815260040160405180910390fd5b61071d81611ddb565b60606006805461065290612722565b610cd77fef485be696bbc0c91ad541bbd553ffb5bd0e18dac30ba76e992dda23cb807a8a33610c45565b610d145760405162461bcd60e51b815260206004820152600e60248201526d139bdd08185d5d1a1bdc9a5e995960921b60448201526064016107af565b60008111610d705760405162461bcd60e51b8152602060048201526024808201527f52657761726420616d6f756e74206d75737420626520677265617465722074686044820152630616e20360e41b60648201526084016107af565b33600090815260026020526040902054811115610dc65760405162461bcd60e51b8152602060048201526014602482015273496e73756666696369656e742062616c616e636560601b60448201526064016107af565b610dd03082610f35565b506000828152600b60205260409081902080546001600160a01b031916339081178255600180830185905560028301805460ff19169091179055915190919084907f69f49e4fd111508c945812e4ec7cf6eb61ee6dda1fce2aa055eaa0409f0ec41290610e409086815260200190565b60405180910390a3505050565b600082815260086020908152604080832083805290915281205460ff16610e9a575060008281526008602090815260408083206001600160a01b038516845290915290205460ff166106e9565b50600192915050565b3360008181526003602090815260408083206001600160a01b038716845290915281205490919083811015610f285760405162461bcd60e51b815260206004820152602560248201527f45524332303a2064656372656173656420616c6c6f77616e63652062656c6f77604482015264207a65726f60d81b60648201526084016107af565b6107398286868403611676565b6000336106e381858561188b565b60608167ffffffffffffffff811115610f5e57610f5e6124e7565b604051908082528060200260200182016040528015610f9157816020015b6060815260200190600190039081610f7c5790505b509050336000805b84811015610c3c57811561101857610ff630878784818110610fbd57610fbd612792565b9050602002810190610fcf91906127a8565b86604051602001610fe2939291906127f6565b604051602081830303815290604052611eb6565b84828151811061100857611008612792565b6020026020010181905250611098565b61107a3087878481811061102e5761102e612792565b905060200281019061104091906127a8565b8080601f016020809104026020016040519081016040528093929190818152602001838380828437600092019190915250611eb692505050565b84828151811061108c5761108c612792565b60200260200101819052505b806110a28161281c565b915050610f99565b6000828152600b60205260409020600281015460ff166111055760405162461bcd60e51b81526020600482015260166024820152755175657374696f6e206973206e6f742061637469766560501b60448201526064016107af565b6002810154610100900460ff161561115f5760405162461bcd60e51b815260206004820152601960248201527f5175657374696f6e20616c726561647920616e7377657265640000000000000060448201526064016107af565b80546001600160a01b031633146111b85760405162461bcd60e51b815260206004820152601d60248201527f4f6e6c7920617574686f722063616e2061636365707420616e7377657200000060448201526064016107af565b80546001600160a01b03908116908316036112155760405162461bcd60e51b815260206004820152601860248201527f43616e6e6f7420616363657074206f776e20616e73776572000000000000000060448201526064016107af565b6002810180546001600160a01b0384166201000002610100600160b01b03199091161761010017905560018101546000606461125283605f612835565b61125c919061284c565b90506000606461126d846005612835565b611277919061284c565b90506112838583610f35565b506112ae7f000000000000000000000000000000000000000000000000000000000000000082610f35565b506040516001600160a01b0386169087907fbb5f4021aa066c37a9f814137a8e04015f0efb2ec3eaf39ba413a9dfcd2d488090600090a3846001600160a01b0316867f8fa6abe1348f6561b9a60363efc5793e820b343dce49d00e37d01644d9268a778460405161132191815260200190565b60405180910390a37f00000000000000000000000000000000000000000000000000000000000000006001600160a01b0316867f8fa6abe1348f6561b9a60363efc5793e820b343dce49d00e37d01644d9268a778360405161138591815260200190565b60405180910390a3505050505050565b6000818152600a6020526040812054815b818110156113f9576000848152600a602090815260408083208484526001019091529020546001600160a01b0316156113e7576113e460018461276c565b92505b6113f260018261276c565b90506113a6565b50611405836000610c45565b156114185761141560018361276c565b91505b50919050565b8342111561146e5760405162461bcd60e51b815260206004820152601d60248201527f45524332305065726d69743a206578706972656420646561646c696e6500000060448201526064016107af565b60007f000000000000000000000000000000000000000000000000000000000000000088888861149d8c611ee2565b6040805160208101969096526001600160a01b0394851690860152929091166060840152608083015260a082015260c0810186905260e001604051602081830303815290604052805190602001209050600061151a6114fa6107c6565b8360405161190160f01b8152600281019290925260228201526042902090565b9050600061152a82878787611f08565b9050896001600160a01b0316816001600160a01b03161461158d5760405162461bcd60e51b815260206004820152601e60248201527f45524332305065726d69743a20696e76616c6964207369676e6174757265000060448201526064016107af565b6115988a8a8a611676565b50505050505050505050565b6000828152600960205260409020546108909033611a59565b6001600160a01b03918216600090815260036020908152604080832093909416825291909152205490565b600080546115f590612722565b80601f016020809104026020016040519081016040528092919081815260200182805461162190612722565b801561166e5780601f106116435761010080835404028352916020019161166e565b820191906000526020600020905b81548152906001019060200180831161165157829003601f168201915b505050505081565b6001600160a01b0383166116d85760405162461bcd60e51b8152602060048201526024808201527f45524332303a20617070726f76652066726f6d20746865207a65726f206164646044820152637265737360e01b60648201526084016107af565b6001600160a01b0382166117395760405162461bcd60e51b815260206004820152602260248201527f45524332303a20617070726f766520746f20746865207a65726f206164647265604482015261737360f01b60648201526084016107af565b6001600160a01b0383811660008181526003602090815260408083209487168084529482529182902085905590518481527f8c5be1e5ebec7d5bd14f71427d1e84f3dd0314c0f7b2291e5b200ac8c7c3b9259101610e40565b60006117a66001546001600160a01b031690565b6001600160a01b0316336001600160a01b031614905090565b600180546001600160a01b038381166001600160a01b0319831681179093556040519116919082907f8292fce18fa69edf4db7b94ea2e58241df0ae57f97e0a6c9b29067028bf92d7690600090a35050565b600061181d84846115bd565b9050600019811461188557818110156118785760405162461bcd60e51b815260206004820152601d60248201527f45524332303a20696e73756666696369656e7420616c6c6f77616e636500000060448201526064016107af565b6118858484848403611676565b50505050565b6001600160a01b0383166118ef5760405162461bcd60e51b815260206004820152602560248201527f45524332303a207472616e736665722066726f6d20746865207a65726f206164604482015264647265737360d81b60648201526084016107af565b6001600160a01b0382166119515760405162461bcd60e51b815260206004820152602360248201527f45524332303a207472616e7366657220746f20746865207a65726f206164647260448201526265737360e81b60648201526084016107af565b6001600160a01b038316600090815260026020526040902054818110156119c95760405162461bcd60e51b815260206004820152602660248201527f45524332303a207472616e7366657220616d6f756e7420657863656564732062604482015265616c616e636560d01b60648201526084016107af565b6001600160a01b03808516600090815260026020526040808220858503905591851681529081208054849290611a0090849061276c565b92505081905550826001600160a01b0316846001600160a01b03167fddf252ad1be2c89b69c2b068fc378daa952ba7f163c4a11628f55a4df523b3ef84604051611a4c91815260200190565b60405180910390a3611885565b60008281526008602090815260408083206001600160a01b038516845290915290205460ff166107c25760405163043c588360e11b81526001600160a01b0382166004820152602481018390526044016107af565b611ab88282611f32565b6107c28282611f8d565b60007f8b73c3c69bb8fe3d512ecc4cf759cc79239f7b179b0ffacaa9a75d522b39400f611aed610643565b80516020918201206040805192830193909352918101919091527fc89efdaa54c0f20c7adf612882df0950f5a951637e0307cdcb4c672f298b8bc660608201524660808201523060a082015260c00160405160208183030381529060405280519060200120905090565b611b618282611ffa565b6000828152600a602090815260408083206001600160a01b03851680855260028201808552838620805487526001909301855292852080546001600160a01b031916905584529152555050565b6001600160a01b038216611c045760405162461bcd60e51b815260206004820152601f60248201527f45524332303a206d696e7420746f20746865207a65726f20616464726573730060448201526064016107af565b8060046000828254611c16919061276c565b90915550506001600160a01b03821660009081526002602052604081208054839290611c4390849061276c565b90915550506040518181526001600160a01b038316906000907fddf252ad1be2c89b69c2b068fc378daa952ba7f163c4a11628f55a4df523b3ef9060200160405180910390a35050565b6001600160a01b038216611ced5760405162461bcd60e51b815260206004820152602160248201527f45524332303a206275726e2066726f6d20746865207a65726f206164647265736044820152607360f81b60648201526084016107af565b6001600160a01b03821660009081526002602052604090205481811015611d615760405162461bcd60e51b815260206004820152602260248201527f45524332303a206275726e20616d6f756e7420657863656564732062616c616e604482015261636560f01b60648201526084016107af565b6001600160a01b0383166000908152600260205260408120838303905560048054849290611d9090849061277f565b90915550506040518281526000906001600160a01b038516907fddf252ad1be2c89b69c2b068fc378daa952ba7f163c4a11628f55a4df523b3ef9060200160405180910390a3505050565b6000808054611de990612722565b80601f0160208091040260200160405190810160405280929190818152602001828054611e1590612722565b8015611e625780601f10611e3757610100808354040283529160200191611e62565b820191906000526020600020905b815481529060010190602001808311611e4557829003601f168201915b505050505090508160009081611e7891906128bc565b507fc9c7c3fe08b88b4df9d4d47ef47d2c43d55c025a0ba88ca442580ed9e7348a168183604051611eaa92919061297c565b60405180910390a15050565b6060611edb83836040518060600160405280602781526020016129dd6027913961205c565b9392505050565b6001600160a01b0381166000908152600760205260409020805460018101825590611418565b6000806000611f19878787876120d4565b91509150611f2681612198565b5090505b949350505050565b60008281526008602090815260408083206001600160a01b0385168085529252808320805460ff1916600117905551339285917f2f8788117e7eff1d82e926ec794901d17c78024a50270940304540a733656f0d9190a45050565b6000828152600a6020526040812080549160019190611fac838561276c565b90915550506000928352600a6020908152604080852083865260018101835281862080546001600160a01b039096166001600160a01b03199096168617905593855260029093019052912055565b6120048282611a59565b60008281526008602090815260408083206001600160a01b0385168085529252808320805460ff1916905551339285917ff6391f5c32d9c69d2a47ea670b442974b53935d1edc7fd64eb21e047a839171b9190a45050565b6060600080856001600160a01b03168560405161207991906129aa565b600060405180830381855af49150503d80600081146120b4576040519150601f19603f3d011682016040523d82523d6000602084013e6120b9565b606091505b50915091506120ca868383876122e2565b9695505050505050565b6000807f7fffffffffffffffffffffffffffffff5d576e7357a4501ddfe92f46681b20a083111561210b575060009050600361218f565b6040805160008082526020820180845289905260ff881692820192909252606081018690526080810185905260019060a0016020604051602081039080840390855afa15801561215f573d6000803e3d6000fd5b5050604051601f1901519150506001600160a01b0381166121885760006001925092505061218f565b9150600090505b94509492505050565b60008160048111156121ac576121ac6129c6565b036121b45750565b60018160048111156121c8576121c86129c6565b036122155760405162461bcd60e51b815260206004820152601860248201527f45434453413a20696e76616c6964207369676e6174757265000000000000000060448201526064016107af565b6002816004811115612229576122296129c6565b036122765760405162461bcd60e51b815260206004820152601f60248201527f45434453413a20696e76616c6964207369676e6174757265206c656e6774680060448201526064016107af565b600381600481111561228a5761228a6129c6565b0361071d5760405162461bcd60e51b815260206004820152602260248201527f45434453413a20696e76616c6964207369676e6174757265202773272076616c604482015261756560f01b60648201526084016107af565b6060831561235157825160000361234a576001600160a01b0385163b61234a5760405162461bcd60e51b815260206004820152601d60248201527f416464726573733a2063616c6c20746f206e6f6e2d636f6e747261637400000060448201526064016107af565b5081611f2a565b611f2a83838151156123665781518083602001fd5b8060405162461bcd60e51b81526004016107af91906123d0565b60005b8381101561239b578181015183820152602001612383565b50506000910152565b600081518084526123bc816020860160208601612380565b601f01601f19169290920160200192915050565b602081526000611edb60208301846123a4565b80356001600160a01b03811681146123fa57600080fd5b919050565b6000806040838503121561241257600080fd5b61241b836123e3565b946020939093013593505050565b60006020828403121561243b57600080fd5b611edb826123e3565b60008060006060848603121561245957600080fd5b612462846123e3565b9250612470602085016123e3565b9150604084013590509250925092565b60006020828403121561249257600080fd5b5035919050565b600080604083850312156124ac57600080fd5b823591506124bc602084016123e3565b90509250929050565b600080604083850312156124d857600080fd5b50508035926020909101359150565b634e487b7160e01b600052604160045260246000fd5b60006020828403121561250f57600080fd5b813567ffffffffffffffff8082111561252757600080fd5b818401915084601f83011261253b57600080fd5b81358181111561254d5761254d6124e7565b604051601f8201601f19908116603f01168101908382118183101715612575576125756124e7565b8160405282815287602084870101111561258e57600080fd5b826020860160208301376000928101602001929092525095945050505050565b600080602083850312156125c157600080fd5b823567ffffffffffffffff808211156125d957600080fd5b818501915085601f8301126125ed57600080fd5b8135818111156125fc57600080fd5b8660208260051b850101111561261157600080fd5b60209290920196919550909350505050565b6000602080830181845280855180835260408601915060408160051b870101925083870160005b8281101561267857603f198886030184526126668583516123a4565b9450928501929085019060010161264a565b5092979650505050505050565b600080600080600080600060e0888a0312156126a057600080fd5b6126a9886123e3565b96506126b7602089016123e3565b95506040880135945060608801359350608088013560ff811681146126db57600080fd5b9699959850939692959460a0840135945060c09093013592915050565b6000806040838503121561270b57600080fd5b612714836123e3565b91506124bc602084016123e3565b600181811c9082168061273657607f821691505b60208210810361141857634e487b7160e01b600052602260045260246000fd5b634e487b7160e01b600052601160045260246000fd5b808201808211156106e9576106e9612756565b818103818111156106e9576106e9612756565b634e487b7160e01b600052603260045260246000fd5b6000808335601e198436030181126127bf57600080fd5b83018035915067ffffffffffffffff8211156127da57600080fd5b6020019150368190038213156127ef57600080fd5b9250929050565b8284823760609190911b6bffffffffffffffffffffffff19169101908152601401919050565b60006001820161282e5761282e612756565b5060010190565b80820281158282048414176106e9576106e9612756565b60008261286957634e487b7160e01b600052601260045260246000fd5b500490565b601f821115610b3457600081815260208120601f850160051c810160208610156128955750805b601f850160051c820191505b818110156128b4578281556001016128a1565b505050505050565b815167ffffffffffffffff8111156128d6576128d66124e7565b6128ea816128e48454612722565b8461286e565b602080601f83116001811461291f57600084156129075750858301515b600019600386901b1c1916600185901b1785556128b4565b600085815260208120601f198616915b8281101561294e5788860151825594840194600190910190840161292f565b508582101561296c5787850151600019600388901b60f8161c191681555b5050505050600190811b01905550565b60408152600061298f60408301856123a4565b82810360208401526129a181856123a4565b95945050505050565b600082516129bc818460208701612380565b9190910192915050565b634e487b7160e01b600052602160045260246000fdfe416464726573733a206c6f772d6c6576656c2064656c65676174652063616c6c206661696c6564a26469706673582212202271c9b62a7d6863aaa382230990a4bc7130bcd52780f2ae9547100be188c7bd64736f6c63430008140033",
  "linkReferences": {},
  "deployedLinkReferences": {}
}